:020000040800F2
:10000000600700209D01000859460008CF2700081E
:100010002D460008190D00088D4F00080000000053
:10002000000000000000000000000000854A0008F9
:10003000691000080000000099470008874A00087E
:10004000B7010008B7010008B7010008B7010008B0
:10005000B7010008B70100086D10000891100008F2
:10006000B7010008B701000897100008B7010008A1
:10007000B7010008B7010008B7010008B701000880
:10008000B7010008B7010008B7010008B701000870
:10009000B7010008B7010008B70100089D1000086B
:1000A000B7010008B7010008B7010008B701000850
:1000B000B7010008B7010008B7010008B701000840
:1000C000B7010008B7010008B7010008B701000830
:1000D000B7010008B7010008B7010008B701000820
:1000E00079100008B7010008B7010008B70100083F
:1000F000B7010008B7010008B7010008B701000800
:10010000B7010008B7010008B7010008B7010008EF
:10011000B7010008B7010008B7010008B7010008DF
:10012000B7010008B7010008B7010008B7010008CF
:10013000B7010008B7010008B7010008B7010008BF
:10014000B7010008B7010008B7010008B7010008AF
:10015000B7010008B7010008B7010008B70100089F
:10016000B7010008B7010008B7010008B70100088F
:10017000B7010008B7010008B7010008000000003F
:10018000B7010008B7010008DFF80CD000F078FBD9
:1001900000480047FD6800086007002006488047C7
:1001A00006480047FEE7FEE7FEE7FEE7FEE7FEE75C
:1001B000FEE7FEE7FEE7FEE7294B0008890100089D
:1001C0002DE9F05F0546002092469B46884606468C
:1001D000814640241BE0284641464746224600F01F
:1001E00023FA53465A46C01A914110D31146184675
:1001F000224600F00AFA2D1A67EB01084F46224604
:100200000120002100F001FA17EB00094E41201EE9
:10021000A4F10104DFDC484631462A46434600F09B
:1002200000B830BCBDE8C09FD2B201E000F8012B9D
:10023000491EFBD270470022F6E710B513460A4666
:1002400004461946FFF7F0FF204610BD421C10F887
:10025000011B0029FBD1801A70472DE9FE4F804613
:1002600081EA0300C00F0C46009021F0004123F00A
:100270000045B8EB0200A94105D240462146904610
:100280001C460B46024623F00040104347D0270D82
:10029000C7F30A00C3F30A510290401A01904028A4
:1002A0006BDAC3F3130040F4801B0098924620B130
:1002B0000023D2EB030A63EB0B0B01985946C0F104
:1002C0004002504600F0A1F906460D4650465946F8
:1002D000019A00F0B9F910EB08006141002487EAA7
:1002E000115284EAE7731A4340D0009A62B3019A2C
:1002F000012A4FEA075215DC001B61EB02014FF0A7
:10030000004202EA0752CDE90042001C41F580118B
:1003100032462B4600F0F0F903B000F045B84046F5
:100320002146F9E7001B61EB0201001C41F5801337
:1003300000185B412018A2F5001747EB030140EAC3
:10034000D570B6196D4111E06D084FEA360645EAE1
:10035000C0754FEA0752001B61EB0201001C41F51A
:10036000801149084FEA30000019514132462B46AE
:1003700003B000F01CB800F0B0B9009801224000B2
:100380000023D0EB020263EBE073009821464FEAB2
:10039000E074B8EB000061EB0401E9E783F000438F
:1003A0005BE781F0004158E730BCBDE8C08F30BC4E
:1003B000BDE8C04FFFF7DFBF2DE9FE4F81EA030420
:1003C00004F0004421F0004100944FF0000B23F0B2
:1003D000004350EA01045ED052EA03045BD0C3F349
:1003E0000A54C1F30A552C44A4F2F3340194A0FB3F
:1003F0000254C1F3130141F48011C3F3130343F416
:10040000801301FB024400FB034E840A970A44EA6E
:10041000815447EA8357A4FB076802958D0A05FBC0
:1004200007854FEA932C04FB0C542705029D4FEAE5
:10043000065847EA1637B5EB08056EEB070C870E32
:10044000920E47EA811742EA8312A7FB0201B6EB3C
:100450000B0164EB00042B0D43EA0C335E1844EBF4
:100460001C50DA465146E7FB0201C5F313044FEA7C
:100470000B3343EA14534FEA0432019C43EA060368
:10048000A4F10C040294009CCDE900B400F034F90E
:1004900003B000F003B800200146F9E730BCBDE826
:1004A000C08F2DE9F04D81EA030404F0004B21F0E8
:1004B000004514464FF0000A23F0004150EA0502BF
:1004C00020D054EA01021DD0C5F30A570246C5F3F5
:1004D0001303C1F31300C1F30A5640F4801543F42B
:1004E0008013A7EB0608101BD64608F2FD3873EB05
:1004F000050002D308F1010801E092185B41B8F150
:10050000000F03DA00200146BDE8F08D00204FF413
:100510008011064684460EE0171B73EB050705D3D2
:10052000121B63EB050306434CEA010C49084FEA32
:10053000300092185B4150EA0107EDD152EA030006
:1005400012D082EA040083EA0501084305D0101B9B
:10055000AB4106D20122002306E000224FF0004307
:1005600002E06FF0010253101AEB06004CEB085149
:1005700010EB0A0041EB0B01BDE8F04D00F0ADB807
:1005800000F0004230F000400AD0C10D01F560716A
:10059000C0F3160042EA0151C208400711437047F8
:1005A00000200146704701F0004330B421F00041C3
:1005B00050EA010206D00A0DA2F56072C1F31301E0
:1005C000002A02DC30BC00207047440F44EAC1041A
:1005D000C100E01830BC00EBC25000F047B830B5A5
:1005E0000B46014600202022012409E021FA02F5F1
:1005F0009D4205D303FA02F5491B04FA02F528448B
:10060000151EA2F10102F1DC30BD202A04DB203AE4
:1006100000FA02F1002070479140C2F1200320FA55
:1006200003F3194390407047202A04DB203A21FA53
:1006300002F00021704721FA02F3D040C2F12002FB
:100640009140084319467047202A06DBCB17203A11
:1006500041FA02F043EAE07306E041FA02F3D040C7
:10066000C2F1200291400843194670470029A8BFF3
:100670007047401C490008BF20F00100704710B4CB
:10068000B0FA80FC00FA0CF050EA010404BF10BC80
:10069000704749B1CCF1200421FA04F411FA0CF1AD
:1006A00018BF012121430843A3EB0C01CB1D4FEAE6
:1006B00000614FEA102042BF002010BC704700EBE1
:1006C000C35010440029A4BF10BC7047401C49000F
:1006D00008BF20F0010010BC704710B5141E73F164
:1006E000000408DA401C41F1000192185B411A43F2
:1006F00001D120F0010010BD2DE9F04D92469B463E
:1007000011B1B1FA81F202E0B0FA80F220329046E3
:10071000FFF77BFF04460F4640EA0A0041EA0B015F
:1007200053465A46084313D0114653EA010019D0E4
:10073000C8F140025046FFF777FF05460E46504687
:1007400059464246FFF761FF084305D0012004E007
:1007500020463946BDE8F08D0020054346EAE076A4
:100760002C4337430A986305E40AA0EB08000022F3
:10077000FD0A44EA47540A3002D500200146E9E761
:10078000010510196941DDE9084500196941BDE815
:10079000F04DA2E72DE9FE4FC3F30A5701F00045E3
:1007A0000024C1F30A56C3F31303C1F3130143F446
:1007B000801312EB020AA64641F48011009543EB28
:1007C000030CA7F1010B16E0B0EB0A0061EB0C0182
:1007D000071E71F1000707DA4FF00008D0EB0800A0
:1007E00085F0004568EB0101171A73EB0107EBD3A5
:1007F000761E001849415E45F6DA50EA010209D03A
:10080000CDE900E5002213460296FFF775FF03B01D
:1008100000F003B820460099F9E730BCBDE8C08F6E
:10082000C1F30A52C1F3130140F2FF3341F48011C6
:100830009A4202DA00200146704740F233439A425E
:10084000A2F2334202DC5242FFF7EEBEFFF7DDBEFA
:1008500030B5041E71F1000404DB4FF00044404247
:1008600064EB0101141E73F1000405DB1C464FF01C
:100870000043524263EB0403994208BF904230BDEB
:10088000064C074D06E0E06840F0010394E80700DD
:1008900098471034AC42F6D3FFF77AFCF06A0008B0
:1008A000106B000870B58C1810F8015B15F0070389
:1008B00001D110F8013B2A1106D110F8012B03E0F9
:1008C00010F8016B01F8016B5B1EF9D12B0705D401
:1008D0000023521E0DD401F8013BFAE710F8013B4A
:1008E000CB1A921C03E013F8015B01F8015B521E66
:1008F000F9D5A142D8D3002070BD00001149124A99
:100900000B68012023F001030B6011461060642383
:1009100001E0013B09D00A68002AFAD10B4B0C4ACE
:100920001A601A680B4B9A4207D00B4B0B4A1B6894
:100930001B0C1B04934200D0FEE7094B01221A70E6
:10094000704700BF002000E0083002400030024045
:10095000C2A507F4CDB5E8B5F8070010000055AA08
:1009600020030020314B1A78002A5AD0D0ED007AAB
:100970009FED2F7AF0EEE77AF4EEC77AF1EE10FAF7
:100980004BD5D0ED037ADFED2B6AF4EEE67AF1EE8B
:1009900010FA42DD9FED286AF4EEC67AF1EE10FA05
:1009A0003BD5D0ED017AF0EEE77AF4EEC77AF1EEBE
:1009B00010FA32D5D0ED047AF4EEE67AF1EE10FAC0
:1009C0002BDDF4EEC67AF1EE10FA26D5D0ED027AE0
:1009D000F0EEE77AF4EEC77AF1EE10FA1DD5D0ED1D
:1009E000057AF4EEE67AF1EE10FA16DDF4EEC67A48
:1009F000F1EE10FA17D530B4104A0468C1684568A2
:100A00001C61516004698168996100205D61946096
:100A1000C2ED037A107030BC7047084A0220107093
:100A2000704701207047054A0220F8E720030020A4
:100A3000CDCC4C3ECDCC4C3F9A99993F180100202B
:100A4000444B1A7802B970470022C3E901221A7395
:100A50000278A2F1420182B0172998BF20328DF8A6
:100A600004204278A2F14201172998BF20328DF864
:100A700005208278A2F14201172998BF20328DF813
:100A800006209DF80420643A132A0DD8DFE802F00E
:100A90000A5E0C0C0C0C0C0C0C0C5B0C0C0C0C58AB
:100AA0000C550C52FF229A729DF80520643A132AC5
:100AB0000DD8DFE802F00A3C0C0C0C0C0C0C0C0CF2
:100AC000390C0C0C0C360C330C30FF22DA729DF80A
:100AD0000620643A132A0DD8DFE802F00A1A0C0C3B
:100AE0000C0C0C0C0C0C170C0C0C0C140C110C0E2C
:100AF000FF221A7302B07047FF229A71FAE70122AF
:100B00001A73F7E7FF225A72F4E701225A72F1E7EB
:100B100001229A71EEE7FF225A71D8E70122DA72B8
:100B2000D5E7FF221A72D2E701221A72CFE701221B
:100B30005A71CCE7FF221A71B6E701229A72B3E725
:100B4000FF22DA71B0E70122DA71ADE701221A71F2
:100B5000AAE700BF2003002030B5002487B0012899
:100B600001D9A41E2CE0184951F82020174901EBA7
:100B7000C01517492A60886D40F400308865886D7B
:100B800000F400300590C86C40F00100C864C86CE7
:100B9000694600F0010005900C20009002200190B1
:100BA0000020029003200390072004904FF0904013
:100BB00000F0B2FB284603F023FD08B16FF00304F8
:100BC00007B0204630BD000020000020C8010020F2
:100BD0000010024000F086BC0C4810B501680024EB
:100BE00091B1491E01600FD10948816D21F40011B6
:100BF00081654FF44071074800F0CEFA064800F0D6
:100C0000CBFC08B16FF00704204610BD1000002097
:100C100000100240000400487C01002030B520494B
:100C200087B01E4808601F4800250168491C016004
:100C300001292FD11A4800F0CAFC58BB1A4CE06CAD
:100C400040F00200E064E06C694600F002000590AC
:100C50004FF4407000901220019001200290032078
:100C6000039004200490114800F056FBA06D40F45E
:100C70000010A065A06D00F400100590084803F076
:100C800047FC6FF0070420B90021054800F030FC54
:100C900000B1254607B0284630BD00000054004092
:100CA0007C010020100000200010024000040048D9
:100CB0003EB54FF480558DE82C000A4601460024CD
:100CC0000123074800F0E2FC28B1054800F07DFC54
:100CD000042802D0241F20463EBD6FF06504FAE7C9
:100CE0007C0100203EB54FF480558DE82C000A466B
:100CF000014600240123074800F07EFD28B1054885
:100D000000F063FC042802D0241F20463EBD6FF093
:100D10006504FAE77C010020FEE7000010B52BA077
:100D20002DED028B00F0C8F9334C34A084EC030A9B
:100D300000F0C2F9D4ED001AB6EE008A35A031EE0B
:100D4000800A20EE080A84ED000A94ED010A30EED4
:100D5000200A20EE080A84ED010A94ED020A30EE22
:100D6000010AF0EEC00A20EE080A60EE880AC4ED1F
:100D7000050A84ED020A00F09FF9C4ED040A32A0CE
:100D800000F09AF994ED040A37A030EE200AB0EE94
:100D9000C00A20EE080A84ED040A00F08DF984ED03
:100DA000030A3EA000F088F9D4ED030A47A030EE14
:100DB000800AB0EEC00A20EE080A84ED030ABDECFA
:100DC000028BBDE8104004F0FFB80000506C616376
:100DD000652074686520626F61726420686F726953
:100DE0007A6F6E74616C6C79206F6E207468652008
:100DF0007461626C652E0000640100205475726E8F
:100E00002074686520626F617264206F7665722E4F
:100E100000000000506C6163652074686520626F9B
:100E200061726420766572746963616C6C79207498
:100E30006F20746865207461626C65202855534288
:100E4000207570292E0000005475726E207468653C
:100E500020626F617264206F76657220285553425C
:100E600020646F776E292E00506C61636520746872
:100E70006520626F61726420696E2066726F6E74A5
:100E8000206F6620796F7520286C6F6F6B696E67B5
:100E9000206F6E20555342292E000000526F74615E
:100EA00074652074686520626F61726420627920C5
:100EB0003138302064656772656573202855534268
:100EC0002068696464656E292E0000000D0A436184
:100ED0006C6962726174696F6E20646F6E652E0D4D
:100EE0000A00000030B542F210752DED068B81B07E
:100EF00047A004F069F800F005F9B0EE408AB0EEC2
:100F0000609AF0EE418A681000F010F9F0EE48AAFD
:100F1000B0EE68AAF0EE499A00F0E4FA04462EE03A
:100F200000F0F0F8B4EEEA0AF1EE10FA02D2F0EEB8
:100F300040AA06E0B4EEC80AF1EE10FA01DDB0EE08
:100F4000408AF4EEC90AF1EE10FA02D2B0EE609ACD
:100F500006E0F4EEE90AF1EE10FA01DDF0EE609A37
:100F6000B4EECA1AF1EE10FA02D2B0EE41AA06E0CF
:100F7000B4EEE81AF1EE10FA01DDF0EE418A00F06D
:100F8000B1FA001BA842CBD369469FED2E0A2E482A
:100F90008DED000A02F0B4F89FED2C0ADDED000A99
:100FA00078EE6A1A39EEC92A20EE200A78EE2A0A6B
:100FB0002548343020EE601AC1EE210A39EE891A34
:100FC00060EE411A81EE821A78EE8A1A38EECA2A49
:100FD00060EE612AC2EE821AC0EC030A70EE600A6B
:100FE00080EE882A70EE410A30EE610A80EEA91A7E
:100FF00080ED032AC0EE280A80ED041AC0ED050A30
:1010000013A003F0E1FF01B0BDEC068B30BD000082
:10101000526F746174652074686520626F617264D8
:1010200020696E20616C6C20646972656374696FFD
:101030006E7320666F72203130207365636F6E644B
:10104000732E0000000000003001002000007A43F1
:101050000D0A43616C6962726174696F6E20646F1E
:101060006E652E0D0A00000070470000014800F078
:1010700075B800002C00002010B54FF4806000F01F
:101080003FF9BDE81040014800F068B82400002096
:10109000022000F035B9102000F032B9202000F015
:1010A0002FB9000001A003F08FBF00000D0A4572A8
:1010B000726F722E0D0A00000EB501460CA003F0EF
:1010C00083FF41F2883000F031F86A4602210120A6
:1010D00001F0C6FC9DED000ADDED010A9DED021A4E
:1010E000B8EEC00AF8EEE00AB8EEC11A0EBD000074
:1010F00025730D0A5363616E6E696E672E2E2E0D79
:101100000A0000000EB56A460221012001F0A8FC89
:101110009DED000ADDED010A9DED021AB8EEC00A50
:10112000F8EEE00AB8EEC11A0EBD000070B5044634
:1011300000F0D8F90546601C02D004484068044419
:1011400000F0D0F9401BA042FAD370BD0801002086
:1011500010B1016000207047012070470268012330
:10116000C2F3004102F01F029340064A02EB411114
:101170000A681A4204D00B604068002800D000477B
:1011800070470000140401400346002009B101200B
:1011900070475A60704700002DE9F84F0023012680
:1011A000DFF834C10F2791E006FA03F414EA0102D4
:1011B0007ED023F003056544AA46D5F808909D0724
:1011C0004FEA157E07FA0EF505EA090B0095B0F116
:1011D000904F05D0414DA84205D14FF0010822E0C3
:1011E0004FF000081FE03E4DA84202D14FF0020828
:1011F00019E03C4DA84202D14FF0030813E03A4DEC
:10120000A84202D14FF004080DE0384DA84202D1A7
:101210004FF0050807E0364DA84202D14FF006080E
:1012200001E04FF0070808FA0EF8D84524D1DFF89E
:10123000C480D8F8009029EA0209C8F8009008F1A3
:101240000408D8F8009029EA0209C8F8009008F1CB
:101250000408D8F8009029EA0209C8F8009008F1BB
:101260000408D8F800509543C8F80050009ADAF8FE
:1012700008509543CAF80850D0F800804FEA430957
:10128000032202FA09F248EA0208C0F80080DD08E9
:1012900000EB8505AA46D5F820804FEA43794FEA4E
:1012A000D96907FA09F528EA0508CAF8208000E09C
:1012B0000BE08568954385604568A5434560C56832
:1012C0009543C560C26AA243C2625B1C31FA03F255
:1012D0007FF46AAF00F010B800000140000400483D
:1012E00000080048000C00480010004800140048A6
:1012F000001800480004014018BCBDE8E08F7047AA
:10130000044910B50A68024202D00860FFF7F7FFEF
:1013100010BD0000140401402DE9F84FDFF898B12A
:1013200000234FF0010C4FF0030A4FF00F090BF1AF
:10133000040EB9E00CFA03F4224070D04D68022D7F
:1013400001D0122D0ED1DD0800EB8508D8F8205011
:101350005E07F70E09FA07F6B5430E69BE402E4345
:10136000C8F8206007685E0091F804800AFA06F564
:1013700008F00308AF4308FA06F848EA0708C0F87F
:1013800000804F68012F05D0022F03D0112F01D00C
:10139000122F13D1D0F80880CF6828EA0508B7408B
:1013A00047EA08078760D0F804800F7928EA040824
:1013B000C7F300179F4047EA08074760D1F8048049
:1013C0006FEA0807BF0706D1C76AA743C8F3C0047E
:1013D0009C403C43C462C468AC438D68B54025431F
:1013E000C5604C68E4005ED5344C256E45F00105BF
:1013F0002566246E23F0030504F001040094304CAC
:101400002E19B4689D072F0F09FA07F5AC43B0F108
:10141000904F05D02B4DA84204D101251CE042E09D
:10142000002519E0284DA84201D1022514E0274DDE
:10143000A84201D103250FE0254DA84201D1042582
:101440000AE0244DA84201D1052505E0224DA8421D
:1014500001D1062500E00725BD402543B560DBF836
:1014600000405D464E689443F60300D514432C605B
:10147000DEF8004075464E689443B60300D5144329
:101480002C600D4D08352C684E689443F60200D54B
:1014900014432C60084D0C352C684E689443B602FA
:1014A00000D514432C605B1C0A6832FA03F57FF404
:1014B00041AF00F013B800000004014000100240EA
:1014C000000001400004004800080048000C0048EB
:1014D00000100048001400480018004818BCBDE87F
:1014E000E08F00000148806870470000080100207C
:1014F00090F84120202A24D190F84020012A20D0C1
:10150000012280F84020242280F8412002681368DC
:1015100023F0010313600268136823F480531360FF
:10152000026813680B43136001680A6842F0010205
:101530000A60202180F84110002180F84010084600
:1015400070470220704790F84120202A22D190F85D
:101550004020012A1ED0012280F84020242280F859
:1015600041200268136823F00103136002681368C6
:1015700023F4706343EA0121116001680A6842F0B4
:1015800001020A60202180F84110002180F84010FB
:10159000084670470220704710B5040013D024207D
:1015A00084F841002068016821F0010101602046B3
:1015B00000F0D1F90020606484F8410044F8300F55
:1015C000A074207410BD012010BD406C704790F8CD
:1015D0004100704770B5040004D094F84100002524
:1015E00010B106E0012070BD84F84050204600F0A4
:1015F000B3F9242084F841002068016821F001013A
:1016000001606068216820F070600861206881686E
:1016100021F400418160E0680128A06807D040F40F
:10162000044021688860E068022803D006E040F4A6
:101630000040F6E721684FF4006048602068416888
:10164000114A114341602068C16821F40041C16022
:10165000D4E904010843A16940EA01202168C86077
:10166000D4E907010843216808602068016841F057
:10167000010101606564202084F84100256384F83D
:101680004250002070BD0000008000022DE9FF4F95
:1016900083B00446DDE9108790F84100DDF84890FA
:1016A0009A469346202874D15FEA080014D09FB16F
:1016B00094F8400001286CD0012084F84000FFF726
:1016C00011FF0646012200901923D103204601F0A4
:1016D0004DF9002871D103E04FF4007060646CE0B4
:1016E000222084F84100402084F8420000256564EF
:1016F000C4F8248067856563CDE9009653465A4651
:101700002046049901F0B8F810B184F8405054E034
:10171000618D3548FF274FF080784FF0007AFF2920
:1017200004D927853A464346009005E0618D21851E
:10173000009094F8282053462046049901F000F9BF
:101740004B46002204212046009601F00FF9A0BB71
:101750002068406A616A0870606A401C6062208D7F
:10176000401E81B22185608D401E6085608DD8B19C
:10177000D1B94B46002280212046009601F0F6F8B0
:10178000D8B9608DFF2805D927853A46434600958C
:1017900006E026E0608D2085009594F828205346C9
:1017A0002046049901F0CCF8608D0028C8D132465B
:1017B0004946204601F006F918B1012007B000F0B3
:1017C00017B821682020C86121684A68074B1A4071
:1017D0004A6084F8410084F8425084F84050002068
:1017E000ECE70220EAE700000024008000E800FEA9
:1017F00030BCBDE8C08F00002DE9FF4F83B0044628
:10180000DDE9108790F84100DDF848909A4693464C
:10181000202871D15FEA080014D09FB194F84000ED
:10182000012869D0012084F84000FFF75BFE0646DE
:10183000012200901923D103204601F097F80028D7
:101840006ED103E04FF40070606469E0212084F8F9
:101850004100402084F8420000256564C4F82480DB
:1018600067856563CDE9009653465A46204604993C
:1018700001F034F810B184F8405051E0608DFF273A
:101880004FF080784FF0007AFF2804D927853A4638
:101890004346009505E0608D2085009594F828204A
:1018A00053462046049901F04BF8324649462046FB
:1018B00001F0AEF8A0BB606A216800788862606AB7
:1018C000401C6062608D401E6085208D401E80B28D
:1018D0002085618DD9B1D0B94B46002280212046A8
:1018E000009601F043F8D8B9608DFF2805D9278507
:1018F0003A464346009506E026E0608D2085009537
:1019000094F8282053462046049901F019F8608D78
:101910000028CAD132464946204601F053F818B192
:10192000012007B000F014B820682021C1612068B0
:101930004268064B1A40426084F8411084F84250D5
:1019400084F840500020ECE70220EAE700E800FEBF
:1019500030BCBDE8C08F7047704700000248816806
:10196000426811448160704708010020094810B5A1
:101970000168002441F480710160032000F070F8D8
:10198000002000F009F808B1012401E000F026F879
:10199000204610BD0020024070B50E4E05460024C2
:1019A000706898B14FF47A71B1FBF0F00A49096898
:1019B000B1FBF0F000F0F0FD40B9102D06D200228E
:1019C0002946501E00F02CF8356000E00124204626
:1019D00070BD00000801002014010020094808B56E
:1019E000016E41F001010166016E01F001010091FB
:1019F000816D41F080518165806D00F080500090D4
:101A000008BD00000010024000F01F0201219140BB
:101A10004009800000F1E020C0F80011704700008C
:101A2000F0B40E4B1B680C46C3F30223C3F1070549
:101A3000042D00D90425191D072901D2002300E037
:101A4000DB1E012606FA05F1491E214099409E4001
:101A5000761E16403143F0BC02F0FFBD0CED00E0F5
:101A6000064900F0070208684FF6FF03184040EAF5
:101A70000220034A10430860704700000CED00E0AC
:101A80000000FA051649B0F5007F0868C0F3412050
:101A900009D0022805D0086820F4C06040F48060B6
:101AA0000860002070470128FBD0086820F4C0605F
:101AB00040F4007008600B483222006850430A4A24
:101AC000B0FBF2F0401C00E0401E4A69520501D50F
:101AD0000028F9D148694005E3D50320704700008C
:101AE000007000401401002040420F0002480068CE
:101AF00000F4C06070470000007000402DE9F84F0E
:101B0000044600270088E54D3E46010504F1200B00
:101B10001DD5606E78B1B0F5800F11D0B0F5000F13
:101B200004D0B0F5400F22D001270FE0E86840F460
:101B30008030E8601BE00021201D02F02FFE03E052
:101B40000021584602F0C0FE070010D03E46208813
:101B5000C00426D5A06EC0B1B0F1807F1AD0B0F11C
:101B6000007F0DD0B0F1407F19D0012718E0D5F8E3
:101B70008800616E20F440000843C5F88800E6E75D
:101B8000E86840F48030E86009E00021201D02F0A0
:101B900005FE03E00021584602F096FE0746F7B125
:101BA0003E46206880033AD5A86D4FF00008C0007B
:101BB00009D4A86D40F08050A865A86D4FF00108C9
:101BC00000F080500090DFF8D8A2DAF8001041F45D
:101BD0008071CAF80010FFF785FC814610E0D5F847
:101BE0008800A16E20F040700843C5F88800D8E74F
:101BF000FFF778FCA0EB0900022801D9032705E0D4
:101C0000DAF80000C005F3D5002F7CD04FEA0706B4
:101C1000B8F1000F03D0A86D20F08050A86520789F
:101C2000C00707D0D5F88800A16B20F00300084357
:101C3000C5F888002078800707D5D5F88800E16BC3
:101C400020F00C000843C5F888002078400707D52D
:101C5000D5F88800216C20F030000843C5F88800D2
:101C60002078000707D5D5F88800616C20F0C00007
:101C70000843C5F888002078C00607D5D5F8880045
:101C8000A16C20F440700843C5F8880020788006D5
:101C900007D5D5F88800E16C20F440600843C5F80A
:101CA00088002088800507D5D5F88800E16D20F4EC
:101CB00040200843C5F888002088400507D5D5F89E
:101CC0008800216E20F440100843C5F88800207871
:101CD000400607D5D5F88800216D20F44050084310
:101CE000C5F888002078000607D5D5F88800616D12
:101CF00020F440400843C5F888002088C00509D575
:101D0000D5F8880000E01CE0A16D20F440300843C5
:101D1000C5F8880020884FF0006780044FF0806885
:101D20004FD5D5F88800E16E20F040600843C5F833
:101D30008800E06EB8423CD1E86840F48010E8606A
:101D40003FE0D5F8900010F4407015D0D4F884101E
:101D5000814211D0D5F89000D5F8901020F4407051
:101D600041F48031C5F89010D5F8901021F48031FD
:101D7000C5F89010C5F89000C00710D0FFF7B2FB6F
:101D8000074641F2883906E0FFF7ACFBC11B494525
:101D900001D903263CE7D5F890008007F4D5D5F8A3
:101DA0009000D4F8841020F440700843C5F89000E7
:101DB0002EE7404505D10121201D02F0EFFC00B1C6
:101DC00006462068000317D5D5F88800216F20F05B
:101DD00040600843C5F88800206FB84204D1E86825
:101DE00040F48010E86007E0404505D10121201D46
:101DF00002F0D4FC00B106462068400317D5D5F8A0
:101E00008800616F20F040600843C5F88800606F6B
:101E1000B84204D1E86840F48010E86007E040452B
:101E200005D10121201D02F0B9FC00B10646208831
:101E300040041AD5D5F88800A16F20F0405008431F
:101E4000C5F88800A06FB0F1805F03D0B0F1005FEB
:101E500005D00AE00221201D02F0A0FC03E00221CF
:101E6000584602F031FD00B106462088000407D52F
:101E7000D5F88800E16F20F080400843C5F888005D
:101E80002068C00307D555F8880FD4F8801020F0DB
:101E9000004008432860304600F004B800100240BB
:101EA0000070004018BCBDE8E08F00002DE9F0474D
:101EB0000F46050058D0404E306800F00700B84289
:101EC00009D2306820F0070038433060306800F0F5
:101ED0000700B84248D12878384CC0072CD0686831
:101EE000032811D0022812D0216898B14905002991
:101EF0003ADAA16821F003010143A160FFF7F2FA89
:101F0000804641F2883910E021688901EFE72168B5
:101F10008903ECE78907EAE7FFF7E4FAA0EB080199
:101F2000494502D90320BDE8F087A068696800F040
:101F30000C00B0EB810FEFD12878800705D5A068A1
:101F4000A96820F0F0000843A060306800F00700A6
:101F5000B8420BD9306820F0070038433060306851
:101F600000F00700B84201D00120DCE728784007E4
:101F700005D5A068E96820F4E0600843A0602878EF
:101F8000000706D5A068296920F4605040EAC10026
:101F9000A06000F03FF8A168094AC1F30311515C49
:101FA00001F01F01C8400749086007480068BDE804
:101FB000F047FFF7F1BC0000002002400010024093
:101FC000046A0008140100200801002005480649A1
:101FD00000688968054AC1F30221515C01F01F01C4
:101FE000C84070471401002000100240446A0008F5
:101FF0000548064900688968054AC1F3C221515C59
:1020000001F01F01C8407047140100200010024079
:10201000446A000870B52549002318468A68CC68D0
:1020200012F00C0204F00306214C4FEA640509D0BB
:102030000C2A05D0042A32D0082A00D1284670BDC7
:10204000012E10D10B681B0704D4D1F89430C3F3D0
:10205000032302E00B68C3F30313164E56F8233034
:10206000DAB10C2AEBD1C86800F00300022818D0BE
:10207000032818D01846CA68CB68C2F30212C3F30B
:1020800006234343521CB3FBF2F2C868C0F341601D
:10209000401C4000B2FBF0F070BD184670BD2046F9
:1020A00070BD2046E7E72846E5E700000010024043
:1020B0000024F400146A00082DE9F84304006ED0EF
:1020C000FD4DA86800F00C06E86800F003072078D2
:1020D000C00663D576B10C2E01D1012F0AD0A069BC
:1020E0000028286878D040F001002860FFF7FAF94E
:1020F00080465BE02868800702D5A0690028DED012
:10210000216A2868000703D5286800F0F00004E081
:10211000D5F89400F02202EA1010814216D9084640
:1021200002F056FC00283AD1286840F008002860E8
:102130002868216A20F0F000084328606868E16997
:1021400020F47F4040EA0120686015E0286840F0F4
:10215000080028602868216A20F0F0000843286001
:102160006868E16920F47F4040EA01206860206AE5
:1021700002F02EFC0028D6D1FFF74CFFA968CF4A09
:10218000C1F30311515C01F01F01C840CC49086044
:10219000CC480068FFF700FC00287DD12DE0C9E0A5
:1021A000FFF7A0F9A0EB0800022876D8286880077E
:1021B000F6D5286840F0080028602868216A20F0D9
:1021C000F000084328606868E16920F47F4040EA35
:1021D0000120686011E0FFE720F001002860FFF7B0
:1021E00081F9804606E000BFFFF77CF9A0EB08000C
:1021F0000228DAD828688007F6D42078C00740D0B3
:10220000082E18D00C2E01D1032F14D06068B0F521
:10221000803F17D0B0F5A02F286817D020F4803069
:102220002860286820F4802028606068E0B1FFF70B
:1022300059F9804614E02868800322D56068002898
:1022400078D01EE0286840F48030EDE740F480202C
:102250002860F7E7FFF746F9A0EB08006428A4D848
:1022600028688003F6D50CE0FFF73CF9804605E0CE
:10227000FFF738F9A0EB0800642896D82868800397
:10228000F6D4207880073BD5042E11D00C2E01D136
:10229000022F0DD0E06801E03EE19FE000282868B1
:1022A0001ED040F480702860FFF71CF907460CE050
:1022B000286840050CD5E0680028C1D008E000BFC0
:1022C000FFF710F9C01B022893D828684005F7D5FE
:1022D0006868217C20F0F85040EA016068600FE0F7
:1022E00020F480702860FFF7FDF8074605E000BF86
:1022F000FFF7F8F8C01B022870D828684005F7D40B
:102300002078000729D560690028D5F8940012D0FC
:1023100040F00100C5F89400FFF7E4F8074604E038
:10232000FFF7E0F8C01B022858D8D5F894008007C2
:10233000F6D512E029E120F00100C5F89400FFF77E
:10234000D1F8074605E000BFFFF7CCF8C01B022814
:1023500044D8D5F894008007F6D42078400768D593
:10236000A86D0027C00008D4A86D40F08050A86573
:10237000A86D012700F08050009053480168C905FE
:1023800012D40168814641F480710160FFF7AAF818
:10239000804605E0FFF7A6F8A0EB080002281DD84C
:1023A000D9F80000C005F5D5A068012817D0052888
:1023B000D5F8900018D020F00100C5F89000D5F8AD
:1023C000900020F0040000BFC5F89000A06841F222
:1023D0008839D0B1FFF786F8804611E06BE0D5F878
:1023E000900040F00100EFE740F00400C5F89000D5
:1023F000F5E700BFFFF776F8A0EB080149455AD88A
:10240000D5F890008007F5D50EE0FFF76BF8804611
:1024100006E000BFFFF766F8A0EB080149457AD84F
:10242000D5F890008007F5D41FB1A86D20F080503A
:10243000A865A06AF0B30C2E75D00228286820F099
:102440008070286004D0286810F0205F51D054E0DC
:10245000FFF748F8064604E0FFF744F8801B02281F
:1024600059D828688001F7D4D4E90B016FF00F0226
:1024700002EB01110843A18F5204490802EB4151BC
:10248000626B41EA0221084394F840104FF07E420B
:10249000490802EB41610843A16B090940EA414048
:1024A000E9680A4A11400843E860286840F08070F3
:1024B00028600DE06BE02EE000100240046A000886
:1024C0001401002008010020007000408C809DF95C
:1024D000E86840F08070E860FFF704F8044604E024
:1024E000FFF700F8001B022815D828688001F7D5EF
:1024F0004DE0E86820F00300E860E86825490840FE
:10250000E860FEF7EFFF044609E000BFFEF7EAFFD0
:10251000001B022803D90320BDE8F88303E02868E4
:102520008001F3D433E00128F6D0E868E26A00F0D5
:102530000301914229D1216B00F070020901103989
:10254000914222D1626B00F4FE41B1EB022F1CD10B
:10255000A26B00F40031072A01D0012200E0002222
:10256000914212D1A18F00F4C00249084905A1F59A
:102570000011914209D194F8401000F0C060490860
:102580004906A1F10071814201D00120C4E7002079
:10259000C2E70000FFFFEEFE10B5401EB0F1807FE5
:1025A00001D3012010BD4FF0E02460610F216017BE
:1025B00002F053F80020A06107202061002010BD28
:1025C00010B5040002D0606F10B107E0012010BD0B
:1025D000002084F87000204600F025F82420606771
:1025E0002068016821F001010160204602F04EFBE5
:1025F0000128ECD0606A10B1204602F0B7FA2068DA
:10260000416821F4904141602068816821F02A01ED
:1026100081602068016841F0010101602046BDE849
:10262000104002F007BB70472DE9F84F0446806F59
:102630009B4616460D4620286AD1EDB1E6B194F8C6
:102640007000012864D0012084F870004FF0000869
:10265000C4F87C802220A067FEF744FFA4F85860ED
:102660008246A4F85A60A0684FF48053FF21984234
:1026700008D122691AB118E0012000F04BB840F2ED
:10268000FF1112E07F2270B1B0F1805F10D0A4F88A
:102690005C8000BFB4F85C70984201D1206970B1D1
:1026A0002E4600250CE0266936B9A4F85C10F1E747
:1026B000216909B13F21F8E7A4F85C20EAE7002688
:1026C00007F0FF09B4F85A00E0B153460022202178
:1026D0002046CDF800B002F029FC08B10320CCE779
:1026E0002068808C56B100EA090006F8010B00BF93
:1026F000B4F85A00401EA4F85A00E3E7384025F821
:10270000020BF5E72020A06784F870800020B4E772
:102710000220B2E718BCBDE8E08F2DE9F84304467B
:10272000406F1F4616460D4620284ED1CDB1C6B18A
:1027300094F87000012848D0012084F870004FF010
:102740000008C4F87C8021206067FEF7CBFEA4F867
:1027500050608146A4F85260A068B0F5805F03D055
:1027600004E00120BDE8F883206910B12E46002561
:1027700010E000260EE08021204602F0D7FBB8B919
:10278000C6B116F8010B21680885B4F85200401E46
:10279000A4F85200B4F852004B464FF000020097E4
:1027A0000028E8D14FF04001204602F0BFFB30B1D5
:1027B0000320D7E735F8020BC0F30800E3E7202039
:1027C000606784F870800020CCE70220CAE7FEE74B
:1027D00001688A69D243920701D400228A620068A4
:1027E0008169C943C90703D0816941F00101816151
:1027F000704700002DE9F0410446006890460E46FF
:102800008069C043C00633D4002520272068806932
:10281000C043800615D5701CF8D0FEF763FEA0EB10
:102820000800B04201D8002EF0D154F8440F40F017
:10283000200044F804096770A57025700120BDE8E8
:10284000F08121681020C8612068C7612046FFF729
:10285000BFFF54F8440B4168064A114041602068AC
:1028600040F0040044F820096777A5772577E5E76D
:102870000020E4E700E800FE2DE9F8430446164690
:10288000DDE9089714489846DAB200900023204604
:1028900000F056F83A464946204600F0B9F8B8B973
:1028A000F5B2B8F1010F08D02168300A88623A46C3
:1028B0004946204600F0ACF850B9206885624B4686
:1028C000002240212046009700F050F8002800D058
:1028D0000120BDE8F8830000002000802DE9F843C6
:1028E0000446164615489846DDE90897DAB2C30251
:1028F0000090204600F024F83A464946204600F071
:1029000087F8B8B9F5B2B8F1010F08D02168300ADC
:1029100088623A464946204600F07AF850B9206865
:1029200085624B46002280212046009700F01EF869
:10293000002800D00120BDE8F883000000200080BE
:10294000F0B50568059C68684FF48066064FC1F3D2
:10295000090106EA545641EA02413E431943B04395
:10296000214308436860F0BDFF63FF032DE9F04198
:102970001D4617460E460446DDF8188008E0681C20
:1029800006D0FEF7AFFDA0EB0800A8420BD855B16A
:102990002068806936EA000012D00020B842EED0EC
:1029A0000020BDE8F08154F8440F40F0200044F8C6
:1029B0000409202060700020A07020700120F0E742
:1029C0000120EBE770B516460D4604460DE0324691
:1029D00029462046FFF70EFF08B1012070BDFEF723
:1029E00081FD801BA84207D835B120688069C043AB
:1029F0008006ECD4002070BD54F8440F40F0200055
:102A000044F80409202060700020A0702070E4E7E2
:102A100070B516460D4604460FE03246294620465C
:102A2000FFF7E8FE08B1012070BD681C05D0FEF775
:102A300059FD801BA84207D835B120688069C04382
:102A40008007EAD4002070BD54F8440F40F0200005
:102A500044F80409202060700020A0702070E2E794
:102A60000B46014610B56FF0010003291BD20E4C36
:102A700054F8214033EA040415D10B4C01EB41001A
:102A8000303C04EB8000094C54F8233050F823000C
:102A9000C36905483C3850F8210011469847002882
:102AA00001D06FF0040010BD14030020F4000020DA
:102AB0002DE9F04F804689B00020344E01250446B0
:102AC000079089465FEA08004FF0FF3A6FF0060B67
:102AD000A6F1300708D0012819D0B8F1020F22D092
:102AE000E81E09B000F056B8084600F0E7FFF0B95C
:102AF0003868316811E000BF9DF80100012801D15C
:102B000044F001049DF8020001281BD01CE0084697
:102B100000F0F8F858B978687168CA686946904753
:102B200050B15846DDE7084600F002FE08B15046B5
:102B3000D7E7B868B168F0E79DF800000128DBD15D
:102B40000224D9E744F0040410490026BA4608EBF1
:102B500048002439DFF838B001EB800735EA090076
:102B60000ED135EA04000BD15BF8250057F82000A0
:102B700001685AF82800884710B16FF00400B0E7E8
:102B80006D00761C032EE9D30798AAE708030020FE
:102B9000F400002030BCBDE8C08F00000B460146A9
:102BA00010B56FF0010003291BD20E4C54F82140E0
:102BB00033EA040415D10B4C01EB4100303C04EB2B
:102BC0008000094C54F8233050F8230083690548ED
:102BD0003C3850F8210011469847002801D06FF08A
:102BE000040010BD14030020F4000020024610B5BC
:102BF0006FF00100032A1AD20D4B53F8223031EA4C
:102C0000030314D10A4B02EB4200303B03EB80007C
:102C1000084B53F8211050F82100016904483C3852
:102C200050F822008847002801D06FF0040010BD42
:102C300014030020F400002010B586B0FEF796FEC5
:102C400001F024FF14216846FDF7F5FA244CE06CEE
:102C500040F00100E064E06C694600F0010005907E
:102C600008200090022001900290002003900F2085
:102C700004904FF09040FEF74FFBA06C40F4805062
:102C8000A064A06C00F48050009003F0A1FE02212B
:102C90000120FFF70DFF9FED130A02210120FFF72E
:102CA000A5FF022211460120FFF778FF0020FDF763
:102CB00053FF01F0BCFC03F029FA0B480A2103F092
:102CC00013FB0A49886010B1094802F07DF901F050
:102CD00097FC06B007A0BDE8104002F075B90000EF
:102CE00000100240000048424C010020000000207B
:102CF000AC1000080D0A496E697420646F6E652E71
:102D00000D0A0000F0B58FB0054633208DF828007D
:102D1000264807902648089026480C9026480B9095
:102D2000264800240D90099407A9254800F0C4FC0A
:102D3000E61F98BB0EA9224800F0F8FB70BB9DF877
:102D4000380044282AD169461D4800F09FFB9DF8B1
:102D500000209DF80210500040EA81009DF801100B
:102D60006FF00406084316499C31486014483C390A
:102D700000F19003486013495960AB070CD5012A54
:102D80000AD1124B00F16C070F4A9B6807EB8303D3
:102D9000DA600968884708B9E80701D0344601E0DD
:102DA0006807FBD40FB02046F0BD00001D0C0008E2
:102DB000D90B0008B10C0008E50C0008D50B000881
:102DC000780200208C0000209C000020F4000020ED
:102DD00010B5044690F82900002807D0002104F11E
:102DE0001C0003F02AFA10B14FF0FF3010BD002094
:102DF00084F8290010BD10B5044690F82900012878
:102E00000CD094F8312094F8301094ED0B0A204641
:102E100000F05EFA20B14FF0FF3010BD002010BD71
:102E2000012084F82900F9E7FEB59FED1E0A0C4643
:102E300006468DED000A01A900F036F84FF0FF3587
:102E400020B96946304600F05BF908B12846FEBD5E
:102E5000BDF90400DDED000A00EE100AB8EEC00A6C
:102E600020EE200ABDEEC00A84ED000ABDF906007E
:102E700000EE100AF8EEC00A9DED000A60EE800A2E
:102E8000FDEEE00AC4ED010ABDF9080000EE900A6B
:102E90000020F8EEE00A20EE800ABDEEC00A84EDC4
:102EA000020AFEBD00000000F0B585B00C461C30E3
:102EB000002503A9074603F06CFA6E1E20B9694687
:102EC000384603F04BF910B1304605B0F0BD9DF81F
:102ED0000C001C283AD2DFE800F00E23232323390C
:102EE00039390E232323393939390E232323233942
:102EF00039390E232323BDF90000C11700EB1170EF
:102F000000112080BDF90200C11700EB1170001103
:102F10006080BDF90400C11700EB1170001113E0CF
:102F2000BDF90000C11700EB917080102080BDF941
:102F30000200C11700EB917080106080BDF90400A1
:102F4000C11700EB91708010A08000E03546284644
:102F5000BBE738B50C46002569461C3003F0E7F99D
:102F600001004FF0FF300BD19DF8001049B101294D
:102F700009D002290AD003290AD005462060284634
:102F800038BD022000E004202060F8E70820FBE7BD
:102F90001020F9E72DE9FC410C461C30002501A961
:102FA000074603F00EF96E1E20B96946384603F055
:102FB000F0F910B13046BDE8FC819DF80400BFEE89
:102FC000000ADFED470A06286BD008DCF2EE090A9A
:102FD000062867D2DFE800F00F127C292C2F092881
:102FE0005AD004DC072829D0082874D13DE01028E5
:102FF00001D020286FD19FED3B0A66E09DF80000CC
:103000001C2868D2DFE800F00E0E0E0E64676767BA
:103010000E0E0E0E676767670E0E0E0E646767670B
:103020000E0E0E0E9FED300A4FE0B3EE090A4CE093
:103030009FED2E0A49E09FED2E0A46E09DF8000024
:103040001C2848D2DFE800F0444444440E47474778
:103050004444444447474747444444440E47474751
:10306000444444449FED230A2FE09DF800001C28AF
:1030700031D2DFE800F02D2D2D2D0E3030302D2DEA
:103080002D2D303030302D2D2D2D0E3030302D2D7A
:103090002D2D9FED190A18E09DF800001C281AD26A
:1030A00001E015E017E0DFE800F0131313130E162C
:1030B00016161313131316161616131313130E16D0
:1030C0001616131313139FED0D0A84ED000A05E085
:1030D000C4ED000A02E084ED000A354628466AE79E
:1030E0000000484300000000CDCCCC3F0000484227
:1030F0000000C8420000C843000048440000C84423
:103100002DE9FC410C461C3000256946074603F0BA
:103110000EF96E1E20B901A9384603F03AF910B134
:103120003046BDE8FC819DF80400DFED220A9FEDEA
:10313000221ABFEE000A1C2828D2DFE800F00E1E7B
:103140001E1E1E2727270E1E1E1E272727270E1E80
:103150001E1E1E2727270E1E1E1E9DF8000010B3E0
:10316000012823D0022802D003280FD102E09FEDCE
:10317000130A15E09FED120A12E09DF8000050B10D
:1031800001280BD002280ED003280FD084ED000AAE
:1031900035462846C5E79FED0B0A01E09FED0A0A78
:1031A00084ED000AF5E7C4ED000AF2E784ED001AA9
:1031B000EFE7000023DB793F23DBF93F23DB794096
:1031C00023DBF94023DB793E23DBF93E10B50229EE
:1031D00001DC002108E0042901DC012104E00829C8
:1031E00001DC022100E003211C3003F0BBF80028C1
:1031F00001D04FF0FF3010BD0022114600F014B98D
:1032000080F8301080F8312010EE101A214A9142D7
:1032100002DC9FED210A39E010EE101A1F4A91429C
:1032200002DCB2EE090A31E010EE101A1C4A91429B
:1032300002DCB3EE090A29E010EE101A194A914295
:1032400002DC9FED190A21E010EE101A174A914294
:1032500002DC9FED170A19E010EE101A154A914290
:1032600002DC9FED150A11E010EE101A134A91428C
:1032700002DC9FED130A09E010EE101A114A914288
:1032800002DC9FED110A01E09FED100A80ED0B0AB0
:1032900000207047CDCCCC3FCDCCCC3F0000484186
:1032A0000000C84100004842000048420000C842F7
:1032B0000000C84200004843000048430000C843E3
:1032C0000000C84300004844000048440000C844CF
:1032D0002DE9F04715462DED028B0F46B0EE408AE2
:1032E00006469FED480A484BDFF820C1DFF82091E1
:1032F000DFF8208148494948012F11D0022F1BD007
:10330000032F1FD0042F23D0012D01D0042400E06F
:10331000142418EE102A8A4226DAB2EE098A29E02D
:10332000012D01D0032400E0132418EE102A82425C
:103330001ADDB0EE408A1DE0012D01D00224F4E731
:103340001224F2E7012D01D00124EEE71124ECE76D
:10335000012D01D0002400E0102418EE102A824232
:1033600002DDB0EE408A21E018EE102A424501DC71
:1033700001212CE018EE102A8A4201DC022126E00D
:1033800018EE101A994201DC032120E018EE101A01
:10339000614501DC04211AE018EE101A494501DCF0
:1033A000052114E018EE101A814201DC06210EE01E
:1033B00018EE100A1A49884201DC072107E018EECE
:1033C000100A1849884201DC082100E0092106F1B1
:1033D0001C00814602F031FF4FF0FF3820B9214632
:1033E000484603F02BF820B14046BDEC028BBDE807
:1033F000F08786ED0B8A86F8307086F83150002011
:10340000F3E70000000048430000C84100004842C4
:103410000000C842CDCCCC3F0000484100004843EA
:103420000000C8430000484490F82930012B01D027
:10343000FFF7E6BEFFF74CBF10B50446FFF7C8FC28
:1034400010B14FF0FF3010BD9FED050A002084ED54
:103450000B0A84F8300084F8310084F8280010BD8D
:103460000000000070B500256C1E072905D2DFE8BA
:1034700001F00606040606040600204670BD1C3056
:1034800002F01BFF0028F8D1284670BD012008700B
:10349000002048708870C8701022C1E90102DFED79
:1034A000060AC8609FED050AC1ED040A81ED050A10
:1034B000C1ED060A70470000000000000000C8448B
:1034C00070B504461C300121064602F04CFE4FF058
:1034D000FF3508BB0121304602F05CFEE0B9002157
:1034E000304602F0EAFEB8B90421304602F0A6FFE9
:1034F00090B99FED0D0A002084ED0B0A84F830008E
:1035000084F831000146304602F097FE20B90021D0
:10351000304602F027FF08B1284670BD012084F82C
:103520002800002070BD00000000C84210B51C300B
:1035300002F0B1FE002801D04FF0FF3010BD0000B6
:1035400070B52DED048B84B000208DF80000DFED08
:10355000488A69464748B0EE688A02F0A1FE464EA6
:10356000B06010B100EE100A0CE0424D0024183596
:103570002CE001AA02210120FFF772FA40B100BF3E
:1035800096ED020A04B0BDEC048BB8EEC00A70BD23
:10359000019895ED000A00B200EE900A95ED031A2D
:1035A0000398F8EEE00A00B2641CE4B200EE810A6F
:1035B00000EE900A95ED051AF8EEE00A70EE288A02
:1035C00095ED020A00EE810A30EE088A9DF80000AF
:1035D0008442CED318EE100AFCF7D2FF41EC190B4F
:1035E00018EE900AFCF7CCFF41EC100BB0EE491A34
:1035F000F0EE691A01F07CFE9FED208B51EC100B70
:1036000053EC182BFCF7D8FE9FED1E1B53EC112B2F
:10361000FCF747FFFCF7C7FFFCF7B2FF41EC100BCC
:10362000B0EE481AF0EE681A01F05AFF51EC100B98
:10363000FCF7B9FF00EE100AB5EEC00AF1EE10FA81
:1036400001D2B1EE400A10EE100A1049884203DDA3
:10365000DFED0F0A30EEC00A10EE100AFCF790FF03
:1036600041EC100B0BA053EC102B01F0ADFC87E7E5
:10367000000000004C0100200000002000000000BD
:1036800000806640182D4454FB2109400000B442DC
:10369000000034430D0A09457374696D6174652037
:1036A0006F662074686520616E676C653A20252E10
:1036B00032660D0A0D0A000070B504004FF00005D7
:1036C0004FF0FF3621D0086820604A6862608A683F
:1036D000A2600A7B22730A6922614A696261896970
:1036E000A1610B4921620B496462E16168B18047C5
:1036F00058B9A068022809D194F8280030B90522E9
:103700002121204600F008F800B13546284670BD5A
:10371000774A0008B94F000807B5012302AA1C30F8
:1037200002F0C4FE002801D04FF0FF300EBD0000B3
:10373000F0B58FB005463D208DF82800254807904C
:103740002548089025480C9025480B9025480024D2
:103750000D90099407A9244800F06AF9E61FA8BB58
:103760000EA9214800F05AF980BB9DF83800402886
:103770002CD169461C4800F04BF89DF800009DF8DC
:10378000022040009DF8011040EA820008431649DB
:103790006FF004066831886013483C3900F15C031F
:1037A0008860124999606B070CD5012A0AD1114B28
:1037B00000F138070E4A1B6907EB83039A61096819
:1037C000884718B9A80701D4E80700D034460FB0DD
:1037D0002046F0BD1D0C0008D90B0008B10C0008F4
:1037E000E50C0008D50B0008AC020020C00000204A
:1037F000D0000020F400002010B5044600F042F88C
:1038000010B14FF0FF3010BD002084F8280010BD2B
:1038100000200870487001228A70C8704860886073
:1038200032209FED060AC86081ED040A81ED050A89
:103830009FED030A002081ED060A7047000000009A
:103840000000C84270B504461C300121064602F053
:1038500034FE4FF0FF3570B90221304602F097FE7A
:1038600048B90321304602F05AFE20B90021304603
:1038700002F0ABFE08B1284670BD012084F8280094
:10388000002070BD10B5044690F82900002807D02C
:10389000022104F11C0002F07AFE10B14FF0FF305B
:1038A00010BD002084F8290010BD10B5044690F822
:1038B0002900012808D0002104F11C0002F067FE55
:1038C00020B14FF0FF3010BD002010BD012084F862
:1038D0002900F9E71CB50C4669461C3002F052FE7F
:1038E00010B14FF0FF301CBDBDF90000B7EE080A63
:1038F00000EE900AF8EEE00A60EE800AFDEEE00AC3
:10390000C4ED000ABDF9020000EE900AF8EEE00AEC
:1039100060EE800AFDEEE00AC4ED010ABDF9040084
:1039200000EE900A0020F8EEE00A20EE800ABDEEDC
:10393000C00A84ED020A1CBD1CB50C4669461C3049
:1039400002F020FE10B14FF0FF301CBDBDF80000AA
:103950002080BDF802006080BDF80400A080002037
:103960001CBD3220086000207047000038B50C46AE
:10397000002569461C3002F0B7FD01004FF0FF3012
:103980000AD19DF8001041B1012909D002290CD0BB
:1039900003290DD00546284638BDB2EE040A01E0E1
:1039A000B3EE040A84ED000AF5E79FED030AF9E798
:1039B0009FED020AF6E70000000048420000C842FE
:1039C000B7EE080A81ED000A00207047002070471A
:1039D00010EE101A0E4A10B5914201DC00210EE0E3
:1039E00010EE101A0B4A914201DC012107E010EEA3
:1039F000101A094A914201DC022100E003211C3027
:103A000002F08DFD002801D04FF0FF3010BD000006
:103A1000000020410000A0410000484210B51C30C9
:103A200002F094FD002801D04FF0FF3010BD0000DF
:103A300070B504004FF000054FF0FF3615D0086850
:103A400020604A6862608A68A2600A7B22730A6901
:103A500022614A6962618969A16110492162104944
:103A60006462E16108B1804708B1354614E0A0689E
:103A700090B194F8281079B9012807D0012104F1F8
:103A80001C0002F068FD38B1304670BD342262215E
:103A9000204600F007F8F6E7284670BD4D4A0008BA
:103AA0008F4F000807B5012302AA1C3002F0A4FDC5
:103AB000002801D04FF0FF300EBD00002DE9F04787
:103AC00090B00546D7208DF828003148079031483E
:103AD000089031480C9031480B90314800240D90EB
:103AE000099407A92F4800F0D7FCE61FF0BB0EA9E8
:103AF0002C4800F0C8FCC8BB9DF838006C283ED1AB
:103B00006946284800F068FC9DF800009DF8021006
:103B1000400040EA81009DF80110224A0843CC325F
:103B2000DFF8889010601F481F4A00F1900700F1ED
:103B3000C00A3860CAF80020EB076FF0040600F1F5
:103B40009C0809D0012907D1D9F804C0184B48F8BE
:103B50002C301168884748B9A80712D59DF8000095
:103B600001280ED11349D9F8082000E007E048F8F1
:103B70002210DAF8001038680968884708B134461E
:103B800001E06807FBD410B02046BDE8F0870000D4
:103B90001D0C0008D90B0008B10C0008E50C00084A
:103BA000D50B00084802002034000020F40000205B
:103BB000680000204400002070B5044690F82900F9
:103BC00000280FD004F11C0004F12B01064602F07E
:103BD0001FFE4FF0FF3520B90021304602F044FEB1
:103BE00008B1284670BD002084F8290070BD10B5CA
:103BF000044690F82900012809D094F82B1004F10C
:103C00001C0002F031FE20B14FF0FF3010BD00204B
:103C100010BD012084F82900F9E70000FEB59FEDF2
:103C20001F0A0C4605468DED000A01A91C3002F062
:103C3000EAFC4FF0FF3620B96946284600F0B8F894
:103C400008B13046FEBDBDF90400DDED000A00EE0E
:103C5000100AB8EEC00A20EE200ABDEEC00A84EDBC
:103C6000000ABDF9060000EE100AF8EEC00A9DED4C
:103C7000000A60EE800AFDEEE00AC4ED010ABDF91B
:103C8000080000EE900A0020F8EEE00A20EE800A1C
:103C9000BDEEC00A84ED020AFEBD00000000000077
:103CA0001CB50C4669461C3002F0ADFC10B14FF05B
:103CB000FF301CBDBDF800002080BDF80200608010
:103CC000BDF80400A08000201CBD38B50C460025BE
:103CD00069461C3002F0DFFD01004FF0FF300AD1D1
:103CE0009DF8001041B101290DD0022906D0032909
:103CF00007D00546284638BD022000E00420206099
:103D0000F8E70820FBE71020F9E7000038B50C467B
:103D1000002569461C3002F07BFD01004FF0FF30AA
:103D200033D19DF800100C292DD2DFE801F0060EEA
:103D30001114171A1D20232629099FED140A01E0EA
:103D4000B1EE0A0A84ED000A1EE0B2EE090AF9E7B4
:103D5000B3EE0A0AF6E79FED0E0AF3E79FED0D0AB0
:103D6000F0E79FED0D0AEDE79FED0C0AEAE79FED06
:103D70000C0AE7E79FED0B0AE4E79FED0B0AE1E78A
:103D80009FED0A0ADEE70546284638BD0000000020
:103D9000000050420000D042000050430080D04359
:103DA000004050440060D044005050450058D04579
:103DB00038B50C46002569461C3002F06CFD010048
:103DC0004FF0FF300AD19DF8001041B1012911D008
:103DD000022907D003290AD00546284638BD9FEDA1
:103DE000070A01E09FED060A84ED000AF5E79FED62
:103DF000050AF9E79FED040AF6E7000023DB793DA9
:103E000023DBF93D23DB793E23DBF93E10B50229A4
:103E100001DC002108E0042901DC022104E008297A
:103E200001DC032100E001211C3002F04FFD0028DD
:103E300001D04FF0FF3010BD90F82910012901D0BA
:103E400000F002B800F056B810EE101A204A914265
:103E500001DC012138E010EE101A1E4A914201DC0B
:103E6000022131E010EE101A1B4A914201DC0321BD
:103E70002AE010EE101A194A914201DC042123E0D5
:103E800010EE101A164A914201DC05211CE010EEDA
:103E9000101A144A914201DC062115E010EE101AA6
:103EA000114A914201DC07210EE010EE101A0F4A70
:103EB000914201DC082107E010EE101A0C4A9142F1
:103EC00001DC092100E00A2180F82B100020704756
:103ED000000048410000D041000050420000D042A4
:103EE000000050430080D043004050440060D04464
:103EF0000050504510EE101A234A10B5914201DCD3
:103F0000012138E010EE101A204A914201DC022112
:103F100031E010EE101A1E4A914201DC03212AE022
:103F200010EE101A1B4A914201DC042123E010EE2E
:103F3000101A194A914201DC05211CE010EE101AFA
:103F4000164A914201DC062115E010EE101A144ABF
:103F5000914201DC07210EE010EE101A114A914245
:103F600001DC082107E010EE101A0F4A914201DC33
:103F7000092100E00A211C3002F076FC002801D063
:103F80004FF0FF3010BD0000000048410000D0415C
:103F9000000050420000D042000050430080D04357
:103FA000004050440060D0440050504570B5044675
:103FB000FFF702FE4FF0FF3518B9204600F00BF86E
:103FC00008B1284670BD002084F82B0084F82C002E
:103FD00084F8280070BD70B5044690F82A000028C7
:103FE0000FD004F11C0004F12C01064602F05FFB27
:103FF0004FF0FF3520B90021304602F082FB08B1B6
:10400000284670BD002084F82A0070BD10B5044613
:1040100090F82A00012809D094F82C1004F11C0013
:1040200002F06FFB20B14FF0FF3010BD002010BD3B
:10403000012084F82A00F9E7FEB50C46054601A9DF
:104040001C3002F0E5FA4FF0FF3620B969462846E9
:1040500000F0B8F808B13046FEBDBDF90400DDED52
:10406000000A00EE100AB8EEC00A20EE200ABDEEEB
:10407000C00A84ED000ABDF9060000EE100AF8EE51
:10408000C00A9DED000A60EE800AFDEEE00AC4ED74
:10409000010ABDF9080000EE900A0020F8EEE00ADF
:1040A00020EE800ABDEEC00A84ED020AFEBD1CB5FA
:1040B0000C4669461C3002F0ABFA10B14FF0FF30ED
:1040C0001CBDBDF800002080BDF802006080BDF876
:1040D0000400A08000201CBD38B50C4600256946B0
:1040E0001C3002F025FB01004FF0FF3019D19DF884
:1040F0000010072913D2DFE801F0060409120C12A0
:104100000F007D2000E0FA20206009E04FF4FA70F3
:10411000FAE74FF47A70F7E74FF4FA60F4E70546F0
:10412000284638BD38B50C46002569461C3002F0DB
:10413000BEFA01004FF0FF3030D19DF800100B297E
:104140002AD2DFE801F006090E1114171A1D2023E8
:1041500026009FED130A01E0B2EE090A84ED000A81
:104160001BE0B3EE0A0AF9E79FED0E0AF6E79FEDB2
:104170000E0AF3E79FED0D0AF0E79FED0D0AEDE75C
:104180009FED0C0AEAE79FED0C0AE7E79FED0B0AAB
:10419000E4E79FED0B0AE1E70546284638BD00003D
:1041A00000000000000050420000D04200005043D8
:1041B0000080D043004050440060D044005050453F
:1041C0000058D04538B50C46002569461C3002F031
:1041D000AFFA01004FF0FF301CD19DF80010072905
:1041E00016D2DFE801F007040C150F1512009FED41
:1041F0000A0A01E09FED090A84ED000A09E09FED3B
:10420000080AF9E79FED070AF6E79FED070AF3E7CB
:104210000546284638BD000000008C4000000C41D7
:1042200000008C4100000C4200008C4210B57D293A
:1042300001DC01210EE0FA2901DC00210AE0B1F5E0
:10424000FA7F01DC022105E0B1F57A7F01DC04216F
:1042500000E006211C3002F088FA002801D04FF05F
:10426000FF3010BD90F82A10012901D000F002B8EB
:1042700000F056B810EE101A204A914201DC0121DC
:1042800038E010EE101A1E4A914201DC022131E0A2
:1042900010EE101A1B4A914201DC03212AE010EEB5
:1042A000101A194A914201DC042123E010EE101A81
:1042B000164A914201DC05211CE010EE101A144A46
:1042C000914201DC062115E010EE101A114A9142CC
:1042D00001DC07210EE010EE101A0F4A914201DCBA
:1042E000082107E010EE101A0C4A914201DC092166
:1042F00000E00A2180F82C1000207047000048419F
:104300000000D041000050420000D0420000504365
:104310000080D043004050440060D04400505045DD
:1043200010EE101A234A10B5914201DC012138E049
:1043300010EE101A204A914201DC022131E010EE09
:10434000101A1E4A914201DC03212AE010EE101AD5
:104350001B4A914201DC042123E010EE101A194A95
:10436000914201DC05211CE010EE101A164A914220
:1043700001DC062115E010EE101A144A914201DC0E
:1043800007210EE010EE101A114A914201DC0821BB
:1043900007E010EE101A0F4A914201DC092100E0FB
:1043A0000A211C3002F0ADF9002801D04FF0FF3097
:1043B00010BD0000000048410000D0410000504204
:1043C0000000D042000050430080D04300405044E1
:1043D0000060D04400505045012008704870002013
:1043E0008870C8704FF4FA624A601022C1E9022056
:1043F0009FED050A81ED040A81ED050A9FED030A90
:1044000081ED060A704700000020D0450000000042
:104410002DE9F04104461C308021074602F0BCF92A
:104420004FF0FF3638BB0121384602F0F6F810BBDA
:104430000121384602F008F9E8B90021384602F0B7
:104440001FF9C0B9042584F82B500021384602F02A
:104450000BFA80B90021384602F038FA58B984F8CE
:104460002C500021384602F04CF920B9062138467C
:1044700002F07BF910B13046BDE8F081012084F8EC
:1044800028000020F8E710B51C3002F0F4F80028EE
:1044900001D04FF0FF3010BD70B504004FF00005A3
:1044A0004FF0FF3621D0086820604A6862608A6851
:1044B000A2600A7B22730A6922614A696261896982
:1044C000A1610B4921620B496462E16168B18047D7
:1044D00058B9A068022809D194F8280030B90C22F4
:1044E0001221204600F008F800B13546284670BD7C
:1044F000694A0008AB4F000807B5012302AA1C3027
:1045000002F07FF9002801D04FF0FF300EBD00000F
:1045100070B504460F4820600F48606000250121F7
:10452000C4E9025125616561A561E5612046256206
:10453000FDF750F800B1012500212046FCF7D8FF17
:1045400000B1012500212046FCF7FDFF00B1012547
:10455000284670BD005400409129700070B5254C6C
:1045600000252570607808B901206070C0B2052868
:104570003AD2DFE800F02D0313212E0001211E485E
:10458000FEF770FFA06038B11C4800F01DFDA06868
:1045900010B11A4800F018FD022018E0164815491D
:1045A0001C3001F0B8FE10B1144800F00DFD207869
:1045B00001280DD103200AE0FEF7C2FFB5EEC00AC4
:1045C000F1EE10FA02D00D4800F0FEFC04206070FD
:1045D00070BD00210848FEF745FFA06010B10748F4
:1045E00000F0F2FC657070BDBDE87040034800F05B
:1045F000EBBC00000000002030010020AC100008DF
:104600000948084901604FF4E131416000218160AF
:104610000C22C160C0E904128161C1610162416282
:10462000FDF7CEBF00440040C8010020FEE700B502
:1046300087B073208DF8000065208DF8010075208B
:104640008DF80200FCF75AF96846FCF7F9F901A861
:10465000FCF788F907B000BD70470907090E00286C
:1046600006DA00F00F0000F1E02080F8141D70471A
:1046700000F1E02080F80014704700000D489FED25
:104680000C0A80ED000A9FED0C0A80ED010A9FEDF7
:104690000B0A80ED020A9FED0A0A80ED030A9FEDE6
:1046A000090A80ED040A9FED080A80ED050A7047AB
:1046B000999FDB3D64010020AF5CEF3DA664B93DEE
:1046C000C93A7C3E3F1E7A3EF41A7B3E00B59FED10
:1046D000290A29482DED048B81B069469FED229A65
:1046E000DFED228A9FED228A8DED000AFEF708FD9C
:1046F0009FED220ADDED000ADFED221A9FED232A4D
:1047000020EE200ADFED1E0ADFED222A1A4820EEF5
:10471000601A3430C1EE210A9FED1B1A20EE411AB7
:10472000C1EE021A9FED1A1AC0ED000A70EE600A7F
:1047300020EE412A82EE221AC0ED011A80EE892A6B
:1047400070EE610A80ED021A30EE410AC0EEA81A3E
:1047500080ED032AC0EE080AC0ED041AC0ED050A78
:1047600001B0BDEC048B00BD31EABA3E08ABB93EE6
:104770007233AC3E000000003001002000007A439C
:104780005AB6663E9A3C013FB75D683E3427FF3E0D
:1047900004E3303E62F5FF3E704700002DE9F04132
:1047A000444C05468846E0680026810728680DD0FD
:1047B000E16801F00301814216D1A8B1E06869689F
:1047C000C0F30210401C88420ED120E0012804D022
:1047D000022805D0032807D108E02168890701E0F5
:1047E00021684905002907DB01265FE0216889036C
:1047F00002D421684903F5E7E1686A686FF00F03A6
:1048000021F0730103EB021211430143E1602068C0
:1048100020F080602060FCF765FE074605E000BFE1
:10482000FCF760FEC01B022837D820680001F7D4CF
:10483000B8F1000F18D0B8F1010F1ED0287D4FF04D
:104840007E41400801EB4060A96840EA01202169EF
:10485000194A114008432061206840F080602060C0
:10486000FCF740FE07461AE0A868E968000209095B
:1048700040EA41402169114AEBE7288A1049400883
:1048800001EB4050A96840EA012021690D4AE0E7A8
:10489000FCF728FEC01B022801D9032606E0206889
:1048A0000001F5D52069A969084320613046BDE8BB
:1048B000F081000000100240FF80FFF9FF80FDFF43
:1048C0000000E0FFFF809FFF2DE9F0413D4C0646D0
:1048D0008846E0680025810730680DD0E16801F066
:1048E0000301814216D1A8B1E0687168C0F30210DB
:1048F000401C88420ED120E0012804D0022805D0B7
:10490000032807D108E02168890701E021684905EB
:10491000002907DB012551E02168890302D42168C1
:104920004903F5E7E16872686FF00F0321F0730146
:1049300003EB021211430143E160206820F0805034
:104940002060FCF7CFFD074605E000BFFCF7CAFD7D
:10495000C01B022829D820688000F7D4B8F1000FC6
:1049600015D0307C4FF07E41400801EB4060B168CB
:1049700040EA01206169144A1140084360612068DF
:1049800040F080502060FCF7ADFD07460FE0B068B6
:10499000F1680002090940EA414061690B4AEBE70E
:1049A000FCF7A0FDC01B022801D9032506E0206802
:1049B0008000F5D560697169084360612846BDE8EB
:1049C000F081000000100240FF80FFF9FF80FDFF32
:1049D000F8B51C4D06460024A86DC00002D5FDF7B1
:1049E00085F80DE0A86D40F08050A865A86D00F036
:1049F00080500090FDF77AF8A96D21F08051A965EB
:104A0000B0F5007F04D0802E07D94FF003040AE0F0
:104A1000802E08D9A02E01D804E001D1022402E0A2
:104A2000702E00D101240848016821F007012143BC
:104A30000160006800F00700A04201D00120F8BD2D
:104A40000020F8BD001002400020024030B40446AF
:104A50008568007B646925B141F04001A44630BC03
:104A6000604741F08001F9E730B40446007B646997
:104A7000A44630BC604730B40446007B6469A44659
:104A800030BC60477047FCF769BF000010B5B8B094
:104A9000442122A8FBF7CFFB142133A8FBF7CBFB63
:104AA00088216846FBF7C7FB0220C1012591102130
:104AB000229026912C900121CDE92D010A212F91E0
:104AC0000721CDE93010329022A8FDF7F5FA10B198
:104AD000144800F079FA0F20002433900320CDE928
:104AE00034043694042133A83794FDF7DFF910B16C
:104AF0000C4800F069FA0F94422014940090684624
:104B0000FCF7FCFF10B1074800F05EFA4FF40070AC
:104B1000FCF7B8FF002802D0024800F055FA38B080
:104B200010BD0000AC1000080D48016841F4700190
:104B300001600C48016841F00101016000218160C1
:104B40000268094B1A4002608214C260026822F4B3
:104B50008022026081610249C00380390860704789
:104B600088ED00E000100240FFFFF6EA90F8241004
:104B7000C90706D001684A68836A22F400321A43E2
:104B80004A6090F82410890706D501684A68C36A0C
:104B900022F480321A434A6090F82410490706D55F
:104BA00001684A68036B22F480221A434A6090F835
:104BB0002410090706D501684A68436B22F40042B5
:104BC0001A434A6090F82410C90606D501688A681D
:104BD000836B22F480521A438A6090F8241089066D
:104BE00006D501688A68C36B22F400521A438A60B2
:104BF00090F82410490611D501684A68036C22F424
:104C000080121A434A60016CB1F5801F06D1016819
:104C10004A68436C22F4C0021A434A6090F8241098
:104C2000090606D501684A68806C22F40022024316
:104C30004A607047F8B500260446C667FCF752FC88
:104C40000546206800686FF07E47000708D52B46B0
:104C500000224FF400112046009700F067F960B978
:104C60002068006840070AD52B4600224FF48001D7
:104C70002046009700F05AF908B10320F8BD202023
:104C80006067A06784F870600020F8BD2DE9F041EE
:104C90000546016880682B69EC6918436B69002739
:104CA00023431843954A0B68954C234003430B60FC
:104CB00028684168EB6821F4405119434160296834
:104CC000A869914201D02B6A18438B6823F43063A2
:104CD00003438B608B4B29688B4899420DD1D0F8E8
:104CE000880010F0030006D0012868D0022864D0A4
:104CF000032851D165E001244FE0844B99420BD148
:104D0000D0F8880010F00C0055D0042857D008289F
:104D100053D00C2840D154E07D4B99420BD1D0F8B0
:104D2000880010F0300046D0102848D0202844D009
:104D3000302831D145E0774B99420BD1D0F888002B
:104D400010F0C00037D0402839D0802835D0C02896
:104D500022D136E0704B99420ED1D0F8880010F481
:104D6000407028D0B0F5807F29D0B0F5007F24D0E6
:104D7000B0F5407F10D124E091420DD1D0F88800E9
:104D800010F4406017D0B0F5806F18D0B0F5006F08
:104D900013D0B0F5406F14D01024604B00264FF4B0
:104DA0000040914245D174B1022C0FD0042C0FD099
:104DB000082C18D10FE00024EFE70224EDE70424CB
:104DC000EBE70824E9E7FDF701F903E0184602E004
:104DD000FDF720F9A8B36A6802EB4201814202D8CC
:104DE000B0EB023F01D9012775E0DFF834815CB1F7
:104DF000022C0CD0042C13D0082CF4D1500821051F
:104E0000401846F1000105E0FDF7E0F80AE050081F
:104E10004449F5E70023FBF7D3F9A0F5407156E0CC
:104E2000FDF7F8F86A68010E03025008181871417E
:104E3000F0E7E9694FF6EF7881422FD1092CD2D201
:104E400000E048E0DFE804F0060920052305050539
:104E50002600C8E7FDF7BAF801E0FDF7C9F8410000
:104E6000D5F8040001EB5001B1FBF0F080B2A0F1E5
:104E700010014145B7D84FF6F0710140C0F3420030
:104E800001432868C16026E027496868EAE7FDF722
:104E9000C1F8E4E74FF480316868E3E7092CA2D257
:104EA000DFE804F006091E052205050525009AE73E
:104EB000FDF78CF801E0FDF79BF80146686801EB0F
:104EC000500100BFB1FBF0F080B2A0F110014145EC
:104ED00089D82968C8602E6638466E66BDE8F081BC
:104EE000686803EB5001EDE7FDF794F8E5E76968C2
:104EF00000EB5100B0FBF1F0E6E70000008000405D
:104F0000F369FFEF00380140001002400044004008
:104F100000480040004C0040005000400024F400D5
:104F2000FFFC0F00000024F40048E8012DE9F041E7
:104F3000984617460E460446069D08E0681C06D0B3
:104F4000FCF7D0FAA0EB0800A8420BD855B12068B6
:104F5000C06936EA000017D00020B842EED0002029
:104F6000BDE8F0812068016821F4D07101602068FB
:104F7000816821F00101816020206067A067002026
:104F800084F870000320EBE70120E6E7FEE730B489
:104F900004468568007B246925B141F04001A446A0
:104FA00030BC604741F08001F9E730B40446007B33
:104FB0002469A44630BC604730B40446007B2469B1
:104FC000A44630BC604700000FB4054B10B503A9E0
:104FD000044A029800F094FC10BC5DF814FB000039
:104FE0005D6000082801002003B40198410000988A
:104FF00050EAC12018BF04204A0D18BF40F001003C
:1050000040F2FF72B2EB515F08BF40F0020001288E
:1050100008BF052002B0704770B59B482DED020B0C
:105020002DED068B079D25F00044A04218DC974823
:10503000844202DC0AD1069840B19DED060BBDEC1E
:10504000068B02B0BDE8704000F048BB002DCCBF1D
:105050009FED8F0B9FED900BBDEC068B02B070BDEA
:105060008F48A04215DD8F48A042D8BF4FF0FF34D3
:1050700058DD9DED060B51EC100BFFF7B5FF042832
:1050800008BF00F051FB9DED060BBDEC068B02B096
:1050900070BD9DED060B51EC100B00F0D3FFCDE978
:1050A000060181489FED828BA0423CDD8248A042F0
:1050B0001FDD00249FED82AB9DED060B53EC1A2BF8
:1050C00051EC100BFBF7C9F89DED060B41EC190BE9
:1050D00053EC1A2B51EC100BFBF76EF953EC182B19
:1050E000FBF75CF953EC192BFBF7DBF9CDE9060173
:1050F00049E09DED060B012453EC182B51EC100BED
:10510000FBF7ABF89DED060B41EC190B53EC182B9C
:1051100051EC100BFBF742F953EC192BFBF7C1F9DB
:10512000CDE906012FE06848A0421FDD02249FED73
:10513000689B9DED060B53EC192B51EC100BFBF704
:105140003BF953EC182BFBF788F89DED060B41EC6F
:10515000180B53EC192B51EC100BFBF71FF953EC08
:10516000182BFBF79EF9CDE906010CE09DED060B2F
:10517000032453EC102B9FED580B51EC100BFBF755
:1051800090F9CDE906019DED060B53EC102B51EC87
:10519000100BFBF711F941EC180B53EC182BFBF734
:1051A0000BF941EC190B4E480621B0EE490AF0EE1E
:1051B000690A784400F016FA53EC182B51EC100BE6
:1051C000FBF7FAF841EC180B4648B0EE490AF0EE4E
:1051D000690A0521784400F005FA53EC192B51ECCB
:1051E000100BFBF7E9F841EC100B51EC180B53ECEA
:1051F000102B002C0EDAFBF730F89DED061B53EC5C
:10520000112BFBF7D9F89DED061B53EC112BFBF787
:10521000C8F835E0FBF721F89DED061B53EC112B88
:10522000FBF7CAF841EC100B2F48784400EBC400A0
:1052300090ED001B51EC100B53EC112BFBF7AEF86B
:105240009DED061B53EC112BFBF7A8F841EC100B5E
:105250002648784400EBC40090ED001B51EC100B85
:1052600053EC112BFBF79DF841EC100B002DA2BF66
:10527000BDEC068B02B070BD51EC100B81F000410B
:1052800041EC100B01E70000000010440000F07F2B
:10529000182D4454FB21F93F182D4454FB21F9BF2C
:1052A0000000DC3F0000203E0000F33F0000000053
:1052B000000000000000F03F0000E63F000000009A
:1052C00000000000000000400080034000000000DB
:1052D000000000000000F83F000000000000F0BFE8
:1052E00002190000B818000042180000FA17000068
:1052F00070B56B4E2DED040B2DED028B82B0DDF8F9
:105300001CC0DDE905235C422CF000411C4341EA4E
:10531000D474049D22F00040B44205D86C422C4362
:1053200040EAD474B4420BD99DED061B9DED040BED
:1053300002B0BDEC028B04B0BDE8704000F0D8B9FB
:10534000ACF14054A4F17F641C430BD0022404EA66
:10535000AC7444EAD27405439FED538B9FED542BFC
:1053600007D015E09DED040B51EC100B00F062FE30
:1053700042E0002C11BF012C9DED040B02B0BDECEE
:10538000028B04BF04B070BD022C38D0032C3BD07C
:105390000B439FED491B9FED4A0B0AD0B14218D138
:1053A000B04209D121F0804120F080400791059062
:1053B0000FE0002A15DA10E0434B7B44002C08BFB5
:1053C00093ED000B0DD0012C10D0022C17D0032C24
:1053D0001AD0B0421DD1002A03DAB0EE410AF0EE35
:1053E000610A02B0BDEC028B04B070BD93ED000BFE
:1053F00051EC100B81F0004141EC100BF1E7B0EEE5
:10540000480AF0EE680AECE7B0EE420AF0EE620AF3
:10541000E7E7401A00153C28C8BF8DED000B19DCEA
:10542000BCF1000FBEBF10F13C0F9FED290B8DEDBD
:10543000000B0FDB9DED060B53EC102B9DED040BC9
:1054400051EC100BFBF72DF800F0FCFD00F0F2FD25
:10545000CDE90001002C08BF9DED000BC1D0012C4F
:1054600010D0022C9FED1C0B53EC102B9DED000B6C
:1054700051EC100B0DD0FAF791FF53EC182BFAF703
:105480008DFFB9E7019880F0004001909DED000B81
:10549000A7E7FAF783FF53EC182BFAF782FFABE785
:1054A0000000F07F00000000182D4454FB2109404B
:1054B000182D4454FB2109C0182D4454FB21F9BF79
:1054C000182D4454FB21F93F2A170000000000006A
:1054D0000000000000000000075C143326A6A13C79
:1054E00010B52DED040B86B09DED060B10EE100AE5
:1054F00010EE901A8DED000B002818BF0120084314
:1055000020F00040C0F17F6000F1E040C00F21D1E9
:105510009DED080B10EE101A10EE900A8DED000BA9
:10552000002918BF0121084320F00040C0F17F602E
:1055300000F1E040C00F0DD129490798B1EB400FB1
:1055400004BF0698002842D00998400004BF08987C
:1055500000283CD09DED080B53EC102B9DED060B65
:1055600051EC100BFBF716F9CDE902019DED020B92
:1055700040F2FF7110EE900A8DED000B31EA1050F1
:1055800021D00798039900F0004001F000418842C3
:1055900019D09DED080B8DED040B9DED020B8DEDEB
:1055A000000B10EE900A059961F31E0005909DED29
:1055B000041B9DED020B51EC110B53EC102BFAF771
:1055C000F0FECDE902019DED020B0AB010BD0120F5
:1055D00000F0CAF80AB0BDE8104000F095B800002D
:1055E0000000E0FF70B504462DED028B4D1E00EB70
:1055F000C500B0EE408AF0EE608A90ED000B35F009
:10560000060017D053EC182B51EC100BFAF7D4FE10
:1056100041EC100B6D1E04EBC50090ED001B51EC2E
:10562000100B53EC112BFAF718FE41EC100B35F070
:105630000600E7D1022D36D0042D1CD0062D1CBF4C
:10564000BDEC028B70BD53EC182B51EC100BFAF72C
:10565000B3FE94ED0A1B53EC112BFAF7FEFD53EC4D
:10566000182BFAF7A9FE94ED081B53EC112BFAF74F
:10567000F4FD41EC100B53EC182B51EC100BFAF726
:105680009BFE94ED061B53EC112BFAF7E6FD53EC51
:10569000182BFAF791FE94ED040B53EC102BFAF74C
:1056A000DCFD41EC100B53EC182B51EC100BFAF70E
:1056B00083FE94ED021B53EC112BFAF7CEFD53EC55
:1056C000182BFAF779FE94ED001B53EC112BFAF727
:1056D000C4FDBDEC028B41EC100B70BD10B553EC5A
:1056E000102B51EC100BFAF7B8FD41EC100B10BD6C
:1056F00010B553EC112B51EC100BFAF7AEFD41EC49
:10570000100B10BD000000009FED050B10B553EC11
:10571000102B51EC100BFAF7C4FE41EC100B10BD2E
:1057200000000000000000009FED050B10B553ECD9
:10573000102B51EC100BFAF73FFE41EC100B10BD93
:10574000000000000000001002E008C8121F08C19D
:10575000002AFAD170477047002001E001C1121FF2
:10576000002AFBD170470000014908607047000023
:105770002C0100202DE9FF5F82B00021DDE904301B
:10578000020DDDF840B0034318D044F61050A2F2E9
:10579000FF3242431514119801281FD0A5EB0B00CE
:1057A000401C5FEA000A4FF000064E4FDFF83891C8
:1057B000B046504615D5CAF1000413E011980124F3
:1057C0004AA3012801D16FEA0B010298119AC0E99E
:1057D0000031C0E9024206B000F08EB8CBF1000003
:1057E000DFE704460021404A491842EB0450CDE966
:1057F000001012E0E00707D032463B4640464946DB
:10580000FAF7DAFD8046894632463B46104619468D
:10581000FAF7D2FD06460F466410002CEAD1DDE906
:105820000401DDE90023BAF1000F06DAFAF7C4FD3E
:1058300042464B46FAF7C0FD05E0FAF732FE424613
:105840004B46FAF72EFE04460E460022284BFAF786
:10585000FFFF03D84FF0FF30014607E00022254B41
:1058600020463146FAF7F9FCFAF7DAFF102409E08E
:10587000002C0ADB0A220023FAF7A2FC039B303239
:105880001A55641E50EA0102F2D1641C039AC4F155
:1058900011031444119A012A03D0012208430DD1A7
:1058A0000AE0084304D000204FF0110B119072E77A
:1058B000A3EB0B056D1E0DE05B4504DD4FF0000210
:1058C00005F1010504E003DA4FF00002A5F101053E
:1058D000002AECD002981199C0E90231C0E90045D4
:1058E00079E70000000014400000F03F30000000A5
:1058F0000000F0430000E03F30BCBDE8C09F000066
:105900002DE9FF4F95B09B468946064600250FE2DC
:10591000252877D100242746F84A0121059400E084
:10592000044316F8013F203B01FA03F01042F7D17F
:1059300030782A2811D06FF02F033078A0F1300290
:10594000092A16D8059A44F0020402EB820203EBFE
:1059500042021044761C0590EFE759F8042B05929B
:10596000002A03DA504244F40054059044F0020443
:10597000761C30782E2816D116F8010F44F0040456
:105980002A280DD06FF02F023078A0F13003092BB8
:1059900009D807EB870302EB4303C718761CF3E72C
:1059A00059F8047B761C30786C280FD006DC4C2824
:1059B00017D068280DD06A2814D104E0742810D0BC
:1059C0007A280FD10DE044F400140AE044F4801466
:1059D00001E044F440147278824202D104F580144C
:1059E000761C761C307866280BD013DC582877D0CC
:1059F00009DC002875D04528F6D04628F4D0472881
:105A00001AD19DE118E0632835D0642879D0652843
:105A100012D195E1702873D008DC6728F1D069288D
:105A20006FD06E280DD06F2806D1B5E073282CD02A
:105A3000752875D0782874D05A46179990476D1CF0
:105A400075E1C4F30250022809D003280DD0D9F81B
:105A5000001004280DD00D6009F1040967E1D9F8A0
:105A60000010EA17C1E90052F6E7D9F800100D80DE
:105A7000F2E70D70F0E719F8041B8DF80010002014
:105A80008DF80100EA46012003E059F804AB4FF01D
:105A9000FF3061074FF0000102D40DE008F1010171
:105AA0008846B9420FDA8045F8DB1AF80810002959
:105AB000F4D108E008F1010188468142FADB1AF8C6
:105AC00008100029F6D105985B46A0EB080721468F
:105AD0003846179A00F097FA284400EB080507E0CB
